:020000040800F2
:10000000C007002089010008E31B0008411900080F
:10001000E11B0008F3020008BD20000800000000FA
:10002000000000000000000000000000E71B0008C6
:10003000F502000800000000E51B0008E91B0008AD
:10004000A3010008A3010008A3010008A301000800
:10005000A3010008A3010008A3010008A3010008F0
:10006000A3010008A3010008A3010008A3010008E0
:10007000A3010008A3010008A3010008A3010008D0
:10008000A3010008A301000891020008A3010008D1
:10009000A3010008A3010008A3010008A3010008B0
:1000A000691C00088D1C0008811C0008751C0008D4
:1000B000991C0008A3010008A3010008A30100087F
:1000C000A3010008A3010008A3010008A301000880
:1000D000A3010008A5200008A3010008B120000822
:1000E000A3010008A3010008A301000800F002F822
:1000F00000F03AF80AA090E8000C82448344AAF188
:100100000107DA4501D100F02FF8AFF2090EBAE885
:100110000F0013F0010F18BFFB1A43F0010318473B
:100120000C2000002C200000103A24BF78C878C1B1
:10013000FAD8520724BF30C830C144BF04680C60ED
:10014000704700000023002400250026103A28BF35
:1001500078C1FBD8520728BF30C148BF0B60704739
:100160001FB51FBD10B510BD00F058F81146FFF7C0
:10017000F7FF01F0B4FF00F076F803B4FFF7F2FFE9
:1001800003BC00F07DF8000009488047094800479B
:10019000FEE7FEE7FEE7FEE7FEE7FEE7FEE7FEE737
:1001A000FEE7FEE704480549054A064B7047000094
:1001B000651C0008ED000008C0010020C0070020F9
:1001C000C0030020C00300204FF0000200B513461A
:1001D00094469646203922BFA0E80C50A0E80C5067
:1001E000B1F12001BFF4F7AF090728BFA0E80C5018
:1001F00048BF0CC05DF804EB890028BF40F8042B11
:1002000008BF704748BF20F8022B11F0804F18BF7D
:1002100000F8012B7047704770477047754600F033
:100220002BF8AE4605006946534620F00700854688
:1002300018B020B5FFF7B6FFBDE820404FF000062C
:100240004FF000074FF000084FF0000B21F00701BE
:10025000AC46ACE8C009ACE8C009ACE8C009ACE801
:10026000C0098D46704710B50446AFF300802046A4
:10027000BDE81040FFF781BF0048704760010020D3
:1002800001491820ABBEFEE72600020070470000BF
:10029000014800F0B2B800001000002070B504461C
:1002A00000688168C943C90717D1816821F001013D
:1002B000816000F03BFB05460AE000BF00F036FB22
:1002C000401B022804D920688068C043C00706D0BC
:1002D00020688068C043C007F0D0002070BDA06ACD
:1002E00040F01000A062E06A40F00100E0620120EE
:1002F00070BDFEE7704772B6FEE77047F8B50024A0
:10030000009490F824202546012A12D0012280F87A
:1003100024204A681F23072A0DD20668776B521ED5
:1003200002EB820293409F430B6893401F43776325
:1003300019E00220F8BD06680D2A0AD2376BD21FD9
:1003400002EB820293409F430B6893401F43376345
:1003500009E0F76A0D3A02EB820293409F430B6873
:1003600093401F43F7620A68072306680A2A0AD3E4
:10037000F7680A3A02EB420293409F438B6893402E
:100380001F43F76008E0376902EB420293409F4346
:100390008B6893401F4337610A68102A01D0112AE5
:1003A00020D1124B02689A4217D193681B0219D4CC
:1003B000936843F4000393600968102912D10C4933
:1003C0000C4A0968B1FBF2F101EB8101490000E040
:1003D000491E00910029FBD104E0816A41F020010F
:1003E0008162012480F824502046F8BD0024014099
:1003F0000C00002040420F00704770B504460068B2
:1004000006684568A90625D5B10723D5A16AC9069E
:1004100003D4A16A41F40071A1628168C1F3424131
:10042000072910D1217B71B9416821F02001416079
:10043000A06A20F48070A062A06AC00403D4A06AFD
:1004400040F00100A0622046FFF7D6FF21686FF060
:100450001200086028062ED570072CD5A06AC006A9
:1004600003D4A06A40F40050A06220688168C1F300
:100470000231072909D04168490515D48168C1F3C3
:100480004241072910D1217B71B9416821F08001D7
:100490004160A06A20F48050A062A06AC00503D425
:1004A000A06A40F00100A0622046FFF726FF216805
:1004B0006FF00C00086068060CD5F0070AD0A06A3F
:1004C00040F48030A062204600F094F821686FF07C
:1004D0000100086070BD00002DE9F0414FF00007F9
:1004E00004003D467ED0A06A002628B9E66284F862
:1004F0002460204600F080F82046FFF7CFFEA16A76
:10050000C90600D420B1A06A40F01000A06269E0E2
:10051000A16A21F4885141F00201A1626268E16997
:10052000237B0A4347EA43010A43A1684FF48077DB
:10053000B94209D0012907D05FF0000194F814C036
:10054000BCF1010F02D00AE03946F7E7F3B1A36A24
:1005500043F02003A362E36A43F00103E3622368EC
:10056000D3F804C02CF4694C4CEA010CC3F804C065
:1005700021688B68DFF870C003EA0C0313438B60BB
:10058000A168B9420BD0012909D00CE0DFF85CC0AA
:10059000A3690CEB43330B4343F40061DFE7218A8B
:1005A0000D05A5F580152168CB6A23F470032B4354
:1005B000CB62216889680E4B1940914208D1E662EE
:1005C000A16A21F0020141F00101A162BDE8F081C0
:1005D000A06A20F0020040F01000A062E06A40F043
:1005E0000100E0620120F1E7FDF7E1FF00E0FFFF1D
:1005F000FE0E1FFF7047000000B585B0002100917E
:1006000001910291039100681249884220D1124859
:10061000816941F400718161816901F40071049183
:10062000816941F0040181618069694600F004003C
:1006300004900220009003200190084800F080F808
:1006400000220121122000F0DDF9122000F0CCF987
:1006500005B000BD00240140001002400008014028
:1006600010B590F821100022022905D004218163E1
:1006700080F82020012010BD01680B6823F00E03D4
:100680000B6001680B6823F001030B6090F84030A9
:10069000C46B012101FA03F3636080F8211080F834
:1006A0002020104610BD000010B590F82110002445
:1006B000022903D00421816301243DE001680A6816
:1006C00022F00E020A6001680A6822F001020A6044
:1006D0001A4A0168914201D1012121E0174A1432DE
:1006E000914201D110211BE0144A2832914201D1DC
:1006F000891515E0114A3C32914201D189140FE06D
:100700000E4A5032914202D14FF4803108E00B4A38
:100710006432914202D14FF4801101E04FF08071B8
:10072000064A083A5160012180F82110002180F822
:100730002010416B01B18847204610BD08000240DF
:100740002DE9F84FDFF8B8910024A9F1040B2346F6
:100750000F2709F1040AABF1040EC9E00125A540F9
:100760002A40AA427DD1674ED1F804C0ACEB0608FE
:10077000B44532D014DCBCF1030F3AD009DCBCF133
:10078000000F2AD0BCF1010F1CD0BCF1020F31D1F7
:100790001DE0BCF1110F17D0BCF1120F2AD119E0E6
:1007A000B8F5881F19D006DCB8F5803F15D0B8F52C
:1007B000801F1FD111E0B8F5001F0ED0B8F5041F3F
:1007C00018D10AE0CB6815E0CB681B1D12E0CB689E
:1007D00008330FE0CB680C330CE08B682BB1012B96
:1007E0004FF0080303D0456104E0042302E00561F3
:1007F00000E00023FF2A01D8064601E000F10406CC
:100800004FEA840501D9A5F12005D6F8008007FA42
:1008100005FC28EA0C0803FA05F548EA0508C6F8BD
:1008200000804D68ED0062D5374DAE6946F0010697
:10083000AE61AD6924F0030605F001050095334D66
:1008400006EB050CDCF80850A607360F07FA06F889
:1008500025EA0805DFF8B880404503D14FF00008CD
:1008600017E044E0DFF8AC80404502D14FF00108CA
:100870000FE0DFF8A480404502D14FF0020808E005
:10088000DFF89880404502D14FF0030801E04FF0B7
:10089000040808FA06F848EA0508CCF808804D680C
:1008A000D9F80060ED024D4601D5164300E09643AD
:1008B0002E604D68DAF80060AD02554601D516434A
:1008C00000E096432E604D68DBF80060AD035D46A6
:1008D00001D5164300E096432E604D68DEF80060B7
:1008E000ED03754601D5164300E096432E60641C67
:1008F0000D682A46E5407FF431AFBDE8F88F00006F
:1009000008040140000011100010024000000140E6
:1009100000080140000C014000100140001401409B
:100920000AB1016170470904FBE7000001488068D3
:1009300070470000000000200248816802781144DE
:100940008160704700000020074810B5016841F041
:1009500010010160032000F075F80F2000F006F888
:1009600000F024F8002010BD0020024070B50D4DAD
:1009700004464FF47A712878B1FBF0F00A4909680F
:10098000B1FBF0F000F052FB48B9102C07D2002266
:100990002146501E00F036F800206C6070BD01202A
:1009A00070BD0000000000200C0000200C4808B5BD
:1009B000816941F001018161816901F001010091CA
:1009C000C16941F08051C161C06900F08050009060
:1009D0000448416821F0E06141F00071416008BDC8
:1009E0000010024000000140002809DB00F01F0257
:1009F000012191404009800000F1E020C0F8001181
:100A000070470000F0B40E4B1B680C46C3F3022382
:100A1000C3F10705042D00D90425191D072901D2AA
:100A2000002300E0DB1E012606FA05F1491E2140E5
:100A300099409E40761E16403143F0BC01F03FBB0A
:100A40000CED00E0064900F0070208684FF6FF03CE
:100A5000184040EA0220034A104308607047000033
:100A60000CED00E00000FA052DE9F843054600789A
:100A7000354CC00754D0E0690026C00008D4E069B6
:100A800040F08050E061E069012600F08050009065
:100A90002E480168C90512D40168804641F480716E
:100AA0000160FFF743FF074605E000BFFFF73EFF89
:100AB000C01B642823D8D8F80000C005F6D5206AEA
:100AC00010F4407021D0A98801F4407181421CD0FB
:100AD000206A1F49012220F440700A6000220A6047
:100AE0002062C00711D0FFF721FF074641F2883886
:100AF00008E000BFFFF71AFFC11B414502D90320E0
:100B0000BDE8F883206A8007F4D5206A696820F47C
:100B10004070084320621EB1E06920F08050E0611F
:100B20002878800705D56068A96820F4404008430C
:100B300060602878C00605D56068E96820F4800008
:100B4000084360600020DBE70010024000700040B6
:100B5000400442422DE9F0470F46050061D0434E64
:100B6000306800F00700B84209D2306820F0070072
:100B700038433060306800F00700B84251D128682F
:100B80003B4C810712D5400703D5606840F4E06014
:100B900060602878000703D5606840F460506060AA
:100BA0006068A96820F0F000084360602878C007FA
:100BB00028D06868012810D02168022810D0890741
:100BC00000292EDA616821F0030101436160FFF71B
:100BD000ADFE804641F288390DE021688903EFE7D8
:100BE0008901EDE7FFF7A2FEA0EB0801494502D914
:100BF0000320BDE8F0876068696800F00C00B0EB86
:100C0000810FEFD1306800F00700B8420BD930688F
:100C100020F0070038433060306800F00700B84229
:100C200001D00120E5E72878400705D56068E9682C
:100C300020F4E060084360602878000706D560680B
:100C4000296920F4605040EAC100606000F038F883
:100C50006168084AC1F30311515CC8400649086045
:100C600006480068FFF782FE0020C2E7002002402D
:100C700000100240122100080C0000200400002097
:100C80000448054900684968044AC1F30221515CDF
:100C9000C84070470C0000200010024022210008CC
:100CA0000448054900684968044AC1F3C221515CFF
:100CB000C84070470C0000200010024022210008AC
:100CC0000E4A51680E4801F00C03042B11D0082B7A
:100CD0000FD10C48C1F38343C903C05C0AD55168E6
:100CE000084AC1F34041921E515C054A5043B0FB93
:100CF000F1F070470449484370470000001002407B
:100D000000127A000221000800093D002DE9F84F89
:100D1000040070D02078C04DC00749D06868C0F387
:100D20008100012807D06868C0F38100022809D13A
:100D30006868C00306D52868800339D56068002834
:100D4000E7D035E06068B0F5803F0BD010B1B0F56A
:100D5000A02F11D0286820F480302860286820F463
:100D6000802002E0286840F480302860606890B1FC
:100D7000FFF7DCFD06460AE0286840F48020286082
:100D8000F0E700BFFFF7D2FD801B642873D8286806
:100D90008003F7D50CE0FFF7C9FD064605E000BF6C
:100DA000FFF7C4FD801B6428F0D828688003F7D4BF
:100DB00020789A4E80074FF001094FF0000839D58E
:100DC000686810F00C0F07D06868C0F38100022833
:100DD00009D16868C00306D42868800714D5206943
:100DE000012808D110E02069B0B1C6F80090FFF7E3
:100DF0009DFD074605E00AE1FFF798FDC01B0228AC
:100E0000C4D828688007F7D52868616920F0F80001
:100E100040EAC10028600DE0C6F80080FFF786FDBB
:100E2000074604E0FFF782FDC01B022823D828688C
:100E30008007F7D4207800072CD57948A169D9B16B
:100E4000C0F80090FFF772FD074604E0FFF76EFD63
:100E5000C01B02280FD8686A8007F7D571484FF485
:100E6000FA510068B0FBF1F0009000BF0098411EFD
:100E70000091FAD20EE080E0C0F80080FFF756FD46
:100E8000074604E0FFF752FDC01B022875D8686AC8
:100E90008007F7D42078400760D5E8690027C000B4
:100EA00008D4E86940F08050E861E869012700F063
:100EB000805000905C480168C90513D401688346DE
:100EC00041F480710160FFF731FD824606E000BF0A
:100ED000FFF72CFDA0EB0A0064284ED8DBF80000D9
:100EE000C005F5D5E06801280AD008B1052813D05F
:100EF000286A20F001002862286A20F0040002E03D
:100F0000286A40F001002862E06841F2883B98B10D
:100F1000FFF70CFD82460BE0286A40F004002862CF
:100F2000EEE700BFFFF702FDA0EB0A0159455AD8D2
:100F3000286A8007F6D50CE0FFF7F8FC824605E04A
:100F4000FFF7F4FCA0EB0A0159454CD8286A80074A
:100F5000F6D41FB1E86920F08050E861E06988B3F9
:100F60006968C1F38101022944D00228C6F8608073
:100F700004D0FFF7DBFC044638E034E0FFF7D6FC92
:100F8000074604E0FFF7D2FCC01B02282BD82868D4
:100F90008001F7D4206AB0F5803F05D16868A16868
:100FA00020F4003008436860D4E908010843696808
:100FB00021F4741108436860C6F86090FFF7B6FC2E
:100FC000044606E025E000BFFFF7B0FC001B022846
:100FD00009D828688001F7D51BE000BFFFF7A6FC01
:100FE000001B022802D90320BDE8F88F2868800181
:100FF000F4D40EE00128F7D06868226A00F480314A
:10100000914204D1616A00F47010884201D001203D
:10101000EAE70020E8E7000000100240000042423A
:10102000800442420C0000200070004010B5401EB9
:10103000B0F1807F01D3012010BD4FF0E02460614A
:101040000F21601701F03BF80020A061072020610C
:10105000002010BD7047704710B590F83C20012A61
:1010600022D0012280F83C20CA688C6822F44072A9
:1010700022434C6822F4806222430C6822F400620E
:1010800022430C6922F4805222434C6922F400521C
:101090002243C969002322F480420A4301684A645A
:1010A00080F83C30002010BD022010BD70B590F8D3
:1010B0003C20012A26D0012480F83C40022280F8FE
:1010C0003D2003685A689D6822F070060A68324322
:1010D0005A600D4B02689A4208D0B2F1804F05D099
:1010E0000A4B9A4202D00A4B9A4204D1496825F031
:1010F00080031943916080F83D40002180F83C1046
:10110000084670BD022070BD002C01400004004064
:101110000008004010B5040003D094F83D0010B161
:1011200007E0012010BD002084F83C00204600F0BC
:101130001FF8022084F83D00211D206800F0B2FD58
:10114000012084F8460084F83E0084F83F0084F8CB
:10115000400084F8410084F8420084F8430084F899
:10116000440084F8450084F83D00002010BD0000D4
:1011700008B5214A01682148914226D1816941F48C
:10118000006181618069002200F4006000901146D6
:101190001820FFF737FC1820FFF726FC0022022159
:1011A0001920FFF72FFC1920FFF71EFC0022114623
:1011B0001A20FFF727FC1A20FFF716FC0022114621
:1011C0001B20FFF71FFC1B2010E0B1F1804F11D155
:1011D000C16941F00101C161C069002200F0010054
:1011E000009003211C20FFF70DFC1C20BDE80840E7
:1011F000FFF7FABB08BD0000002C014000100240C0
:1012000070B5044690F83C000025012817D001264F
:1012100084F83C60022084F83D002068826822F057
:10122000770222F47F4282600868502838D00DDCB3
:1012300020284FD005DC90B3102811D14AE00220BD
:1012400070BD302846D040280AD13BE060282FD01E
:1012500070280DD0B0F5805F03D0B0F5005F12D0DC
:10126000012584F83D60002084F83C00284670BDCC
:10127000CB68D1E90121206800F050FD2068816829
:1012800041F0770109E0CB68D1E90121206800F045
:1012900045FD2068816841F480418160E1E719E003
:1012A000CA684968206800F0EDFD5021206806E01A
:1012B000CA684968206800F0F6FD6021206800F0E7
:1012C00037FDCEE7CA684968206800F0DBFD4021A1
:1012D0002068F4E7226801461046F0E770472DE9E0
:1012E000F04104460068C66805694FF00007A90789
:1012F00013D5B10711D5F91E0161012020772068AF
:1013000080698007204602D0FFF7E8FF04E000F084
:10131000A5F8204600F037F92777680716D570073B
:1013200014D521686FF0040008610220207720683E
:10133000806910F4407F204602D0FFF7CFFF04E021
:1013400000F08CF8204600F01EF92777280715D505
:10135000300713D521686FF008000861042020775A
:101360002068C0698007204602D0FFF7B7FF04E07D
:1013700000F074F8204600F006F92777E80616D545
:10138000F00614D521686FF010000861082020775E
:101390002068C06910F4407F204602D0FFF79EFF0E
:1013A00004E000F05BF8204600F0EDF82777E8074E
:1013B00008D0F00706D021686FF0010008612046D0
:1013C00000F0E2F8280608D5300606D521686FF04F
:1013D000800008612046FFF73DFE680608D57006CC
:1013E00006D521686FF040000861204600F0CDF876
:1013F000A8060AD5B00608D521686FF0200008615C
:101400002046BDE8F041FFF726BEBDE8F0810000B0
:1014100000B585B00021009101910291039100680F
:101420000B49884212D10B48816941F00401816166
:101430008069694600F0040004904FF480700090C9
:101440000220019003900448FFF77AF905B000BD2F
:10145000002C01400010024000080140704770B5A8
:10146000044690F83C0000260D4601280FD00120CC
:1014700084F83C006AB1042A1DD0082A2FD00C2A17
:101480003FD00126002084F83C00304670BD022089
:1014900070BD206800F054FC2068816941F00801AB
:1014A00081612068816921F004018161206881697E
:1014B0002A69114311E0206800F06AFC2068816904
:1014C00041F4006181612068816921F4806181615A
:1014D000206881692A6941EA02218161D2E7206896
:1014E00000F082FC2068C16941F00801C1612068F8
:1014F000C16921F00401C1612068C1692A691143F1
:1015000011E0206800F09CFC2068C16941F4006192
:10151000C1612068C16921F48061C1612068C1692D
:101520002A6941EA0221C161ACE710B5040003D089
:1015300094F83D0010B107E0012010BD002084F8B0
:101540003C00204600F01EF8022084F83D00211DDA
:10155000206800F0A7FB012084F8460084F83E00D4
:1015600084F83F0084F8400084F8410084F8420089
:1015700084F8430084F8440084F8450084F83D0072
:10158000002010BD70477047704770477047704724
:10159000F8B5016804460868CA684B6910F00F0F77
:1015A0004FF0000559D003F0010602F4907737435D
:1015B00065D0C10705D0D10503D5616C41F00101AB
:1015C0006164410705D5D90703D0616C41F0020180
:1015D0006164810705D5D90703D0616C41F004012E
:1015E0006164010707D502F02001314303D0616C2B
:1015F00041F008016164616C00293AD0800604D58D
:10160000900602D5204600F08FFC20684069616C8E
:10161000C0F38010090700D460B3204600F05DFCE1
:1016200020684069400621D52068143050E8001F2A
:1016300021F0400140E80012002AF5D1E06BA8B18A
:101640006D494163E06BFFF72FF8002811D0E06B84
:10165000416B01B0BDE8F040084783060FD5930603
:101660000DD52046BDE8F84000F05EBC2046FFF7EF
:101670008EFFF8BD2046FFF78AFF6564F8BD266B34
:101680002023012E7CD1C6067AD5D60678D50868E7
:101690004868009048694FF00206400640D5E16B6B
:1016A000086840680004000CE8D0A28D8242E5D9A9
:1016B000E085886920282DD020680C3050E8001F74
:1016C00021F4807140E80012002AF5D1206814301E
:1016D00050E8001F21F0010140E80012002AF5D176
:1016E0002068143050E8001F21F0400140E800124B
:1016F000002AF5D184F84230256320680C3050E888
:10170000001F21F0100140E80012002AF5D1E06B23
:10171000FEF7A6FF6663A08DE18D401A81B22AE034
:10172000A08DE18D401A81B2E08D0028A6D000295D
:10173000A4D022680C3252E8000F20F4907042E8E6
:101740000007002FF5D12068143050E8002F22F058
:10175000010240E80027002FF5D184F842302563CC
:1017600020680C3050E8002F22F0100240E80023DF
:10177000002BF5D166632046FFF708FFF8BDFFE7B1
:1017800005062BD5150629D594F841002128F5D159
:10179000A068B0F5805F01D12069B0B1206A411C1A
:1017A0002162216800784860E08C401E0004000C33
:1017B000E084E3D12068C16821F08001C160206825
:1017C000C16841F04001C160D8E7206A0088C0F3D9
:1017D00008004860206A801C2062E5E74006CDD5FD
:1017E0005006CBD5CA68204622F04002CA6084F871
:1017F000413000F0A4F8C1E7CB1E000870B504002A
:1018000004D094F84100002510B106E0012070BD1D
:1018100084F84050204600F023F8242084F841004A
:101820002068C16821F40051C160204600F0DEFB51
:101830002068016921F4904101612068416921F02B
:101840002A0141612068C16841F40051C1606564AA
:10185000202084F8410084F842006563002070BDB8
:1018600070B586B000240094019402940394036838
:101870002E482D4E022103220515B34226D183693D
:1018800043F480438361836903F480430493836951
:1018900043F0040383618069254E00F00400049046
:1018A0000802CDE90001039269463046FEF748FF81
:1018B000CDE90054694630460294FEF741FF00220C
:1018C00005212520FFF79EF8252028E0194EB34278
:1018D00027D1C36943F48023C361C36903F4802320
:1018E0000493836943F0080383618069CDE9005163
:1018F00000F00800CDE903200F4D69462846FEF7A9
:101900001FFFE814CDE90004694628460294FEF75B
:1019100017FF002204212720FFF774F82720FFF784
:1019200063F806B070BD00000038014000100240AE
:101930000008014000480040000C0140704770471B
:10194000FEE700003EB500211048009101910E4ACB
:101950000291026081600173017501244FF46022DD
:101960000461C2614160FEF7B7FD08B1FEF7C3FC38
:1019700000940194694605480294FEF7BFFC0028D4
:1019800001D0FEF7B8FC3EBD00240140100000204D
:1019900070B586B000242448009401940294039406
:1019A000816941F010018161816901F010010491A8
:1019B000816941F020018161816901F02001049178
:1019C000816941F004018161816901F004010491A0
:1019D000816941F0080181618069012200F00800FD
:1019E000124E5503049029463046FEF799FF012018
:1019F0000095CDE901040220039069463046FEF7C8
:101A00009FFE4FF20100CDE90004694608480294A8
:101A1000FEF796FEA810CDE9000469460548029439
:101A2000FEF78EFE06B070BD0010024000100140AF
:101A3000000C01400008014010B596B000240F943E
:101A400010941194129413941C2108A81494FEF776
:101A5000BBFB20216846FEF7B7FB2A4828490160F6
:101A60004721C0E9011440F2E731C0E903148021A5
:101A7000C0E90541FFF74EFB08B1FEF73CFC4FF40F
:101A800080500F900FA91F48FFF7BAFB08B1FEF76F
:101A900032FC1C48FFF749FD08B1FEF72CFC1394FB
:101AA00013A918481494FFF701FB08B1FEF723FCB3
:101AB000602008904FF4FA70CDE909040420CDE9C4
:101AC0000B400D94002208A90E480E94FFF7C7FCA6
:101AD00008B1FEF710FC00944FF40050CDE904402B
:101AE000029401940394694606480794FFF7B4FAF8
:101AF00008B1FEF700FC0348FFF78AFC16B010BDE2
:101B0000002C01404000002010B586B0002417488A
:101B1000009401940294039404944FF0804105943E
:101B2000016041F61F41C0E9011440F2E731C0E90C
:101B3000031480218161FFF7EDFA08B1FEF7DBFBAA
:101B40004FF48050009069460848FFF759FB08B1F0
:101B5000FEF7D1FB049404A904480594FFF7A6FA04
:101B6000002801D0FEF7C7FB06B010BD880000209A
:101B70000C4810B50A4901604FF41651416000212C
:101B800081600C22C160C0E904128161C161FFF76C
:101B900035FE002803D0BDE81040FEF7ACBB10BDF9
:101BA00000380140D00000200C4810B50A490160FF
:101BB0004FF416514160002181600C22C160C0E9E0
:101BC00004128161C161FFF719FE002803D0BDE84E
:101BD0001040FEF790BB10BD0048004018010020E7
:101BE000FEE7FEE770477047FEF7A6BE30B593B03C
:101BF00028216846FEF7E8FA14210AA8FEF7E4FA5D
:101C0000002501200F9510951195010412958DE87E
:101C1000230004904FF4E010CDE90810022407944B
:101C20006846FFF773F808B172B6FEE70AA90F20FD
:101C300081E831004FF48060CDE90D0502210AA84A
:101C4000FEF788FF08B172B6FEE74FF4004011902E
:101C50000F940FA8FEF708FF002801D072B6FEE728
:101C600013B030BD704700000148FFF738BB0000DB
:101C7000400000200148FFF732BB00004000002078
:101C80000148FFF72CBB0000400000200148FFF78F
:101C900026BB0000400000200148FFF720BB0000E9
:101CA00088000020F0B50268194B1A4C1A4D4FF00D
:101CB0008047984205D0B84203D0A04201D0A84244
:101CC00003D122F070064A683243984205D0B842E8
:101CD00003D0A04201D0A84203D122F44074CA68C4
:101CE00022434C6922F08002224302608A68C26269
:101CF0000A688262984201D1096901630121416148
:101D00000169C90703D0016921F001010161F0BD3A
:101D1000002C0140000400400008004010B5846819
:101D200042EA032224F47F440A432243826010BD26
:101D3000826822F070020A4342F007018160704716
:101D400030B5036A026A22F00102026242688469C5
:101D500024F073050C682C4323F002058B682B4399
:101D60000A4DA8420BD123F00805CB6822F440723B
:101D70002B434D6923F0040315438A692A434260CB
:101D8000846149684163036230BD0000002C01405A
:101D900030B5026A036A23F0100303624368846962
:101DA0000D6824F4E64444EA05248D6822F02002FC
:101DB00042EA05120B4DA8420ED1CD6822F08002F6
:101DC00042EA05124D6923F4406343EA85038D69B5
:101DD00022F0400243EA85034360846149688163DD
:101DE000026230BD002C014030B5036A026A22F461
:101DF000807202624268C46923F4007324F07305A0
:101E00000C682C438D6843EA05230C4DA8420ED183
:101E1000CD6823F4006343EA05234D6922F4405260
:101E200042EA05128D6923F4806342EA051242609A
:101E3000C4614968C163036230BD0000002C0140E9
:101E400030B5046A026A22F4805202624268C369B1
:101E50000D6823F4E64343EA05238D6824F4005417
:101E600044EA0534064DA84204D14D6922F480426B
:101E700042EA85124260C36149680164046230BD70
:101E8000002C014010B5036A046A24F001040462C6
:101E9000846924F0F00444EA021423F00A020A439D
:101EA0008461026210BD10B5036A046A24F0100454
:101EB0000462846923F0A00324F4704444EA0232EB
:101EC00043EA01118261016210BD10B5406A002130
:101ED000C185C184FFF75BFB10BD01680C3151E87F
:101EE000002F22F4907241E80023002BF5D1016805
:101EF000143151E8002F22F0010241E80023002BA9
:101F0000F5D1016B012909D101680C3151E8002F8D
:101F100022F0100241E80023002BF5D1202180F8A7
:101F2000421000210163704708B590F84210222941
:101F300001D0022008BD82684FF480539A4201D13B
:101F4000016921B1816A9A421BD04AB10AE0026854
:101F5000816A5268C2F308020A80816A891C08E01B
:101F6000026972B10268526802F07F020A70816AE7
:101F7000491C8162C18D491E0904090CC18503D029
:101F80001BE002685268F1E70168CA6822F020028B
:101F9000CA600168CA6822F48072CA6001684A692E
:101FA00022F001024A61202180F8421000214163A1
:101FB000026B012A03D0FFF7C1FC002008BD0163BA
:101FC00001680C3151E8002F22F0100241E8002393
:101FD000002BF5D101680A68D20602D50A68496863
:101FE0000091818DFFF7D2FAE7E7000070B5044653
:101FF00000680169E26821F44051114301612169DF
:10200000A0680843616908432168CA6841F20C630B
:102010009A430243CA6020684169A26921F4407171
:10202000114341611E492068884202D1FEF738FE03
:1020300001E0FEF725FE00EBC00101EB0012606835
:1020400064218000B2FBF0F3B3FBF1F36FF01806EC
:102050007343B2FBF0F5B2FBF0F605EB83053223D8
:1020600003EB0515B5FBF1F5B6FBF1F605F0F00550
:1020700005EB0615B2FBF0F6B2FBF0F0B0FBF1F0A9
:102080006FF01802504306EB800003EB0010B0FB2A
:10209000F1F0216800F00F002844886070BD000056
:1020A000003801400148FFF773BA0000D00000205B
:1020B0000148FFF76DBA000018010020FEE709078C
:1020C000090E002804DB00F1E02080F800147047BE
:1020D00000F00F0000F1E02080F8141D7047FEF7BB
:1020E00033FCFFF783FDFFF753FCFFF72BFCFFF7F3
:1020F000A3FCFFF709FDFFF73BFDFFF755FDFEE7EA
:10210000010202030405060708090A0B0C0D0E0F55
:102110001010000000000000000001020304060788
:102120000809000000000102030400004C2100081F
:102130000000002010000000280100085C210008B9
:1021400010000020B007000044010008010000005A
:0C215000100000000000000000127A00E7
:04000005080000ED02
:00000001FF
